:100000000C945D000C9485000C9485000C94850084
:100010000C9485000C9485000C9485000C9485004C
:100020000C9485000C9485000C9485000C9485003C
:100030000C9485000C9485000C9485000C9485002C
:100040000C9417030C9485000C9485000C94850087
:100050000C9485000C9485000C9485000C9485000C
:100060000C9485000C9485000000000024002700FB
:100070002A0000000000250028002B0004040404CE
:100080000404040402020202020203030303030342
:10009000010204081020408001020408102001021F
:1000A00004081020000000080002010000030407FB
:1000B0000000000000000000230411241FBECFEF49
:1000C000D8E0DEBFCDBF11E0A0E0B1E0E2E9F8E0AA
:1000D00002C005900D92AA35B107D9F721E0AAE533
:1000E000B1E001C01D92AB37B207E1F710E0CDE5FA
:1000F000D0E004C02197FE010E944104CC35D10715
:10010000C9F70E9461030C9447040C94000090E02E
:10011000FC01EC55FF4F2491FC01E057FF4F349157
:10012000FC01E458FF4FE491EE23C9F0222339F09B
:10013000233001F1A8F4213019F1223029F1F0E047
:10014000EE0FFF1FEE58FF4FA591B4918FB7F894B3
:10015000EC91611126C030953E233C938FBF0895EA
:100160002730A9F02830C9F0243049F78091800069
:100170008F7D03C0809180008F7780938000DFCFD8
:1001800084B58F7784BDDBCF84B58F7DFBCF809125
:10019000B0008F778093B000D2CF8091B0008F7D78
:1001A000F9CF3E2BDACFCF93DF9390E0FC01E057FD
:1001B000FF4F249184589F4FFC0184918823D1F0F4
:1001C00090E0880F991FFC01E859FF4FA591B49169
:1001D000FC01EE58FF4FC591D49161110EC09FB73D
:1001E000F8948C91E22FE0958E238C932881E22362
:1001F000E8839FBFDF91CF9108958FB7F894EC917A
:10020000E22BEC938FBFF6CF8E3008F08E508770C4
:10021000806480937C0080917A00806480937A006F
:1002200080917A0086FDFCCF8091780090917900D2
:1002300008953FB7F89480915F0190916001A0917B
:100240006101B091620126B5A89B05C02F3F19F04E
:100250000196A11DB11D3FBFBA2FA92F982F882746
:10026000BC01CD01620F711D811D911D42E0660F21
:10027000771F881F991F4A95D1F708958F929F92F3
:10028000AF92BF92CF92DF92EF92FF924B015C014F
:100290000E9419016B017C010E9419016C197D09F2
:1002A0008E099F09683E734081059105A8F321E0FE
:1002B000821A9108A108B10888EEC80E83E0D81E02
:1002C000E11CF11C81149104A104B10429F7FF90F1
:1002D000EF90DF90CF90BF90AF909F908F90089558
:1002E000AF92BF92CF92DF92EF92FF920F931F9344
:1002F000CF93DF936C017B018B01040F151FEB0182
:100300005E01AE18BF08C017D10759F06991D60138
:10031000ED91FC910190F081E02DC6010995892BAA
:1003200079F7C501DF91CF911F910F91FF90EF9069
:10033000DF90CF90BF90AF900895089590E080E057
:100340000895CF93DF93FC0101900020E9F73197E6
:10035000AF01481B590BBC0183E691E00E9470017C
:10036000EC0142E050E06CE071E083E691E00E9435
:1003700070018C0F9D1FDF91CF910895CF93DF9374
:10038000EC0160E08E810E94870061E08E810E9416
:10039000870060E08E810E9487008BE891E00197E2
:1003A000F1F7DF91CF910895CF92DF92EF92FF9214
:1003B0000F931F93CF93DF936C017C0187E0E80ECE
:1003C000F11CD0E0C0E0062F10E0B8010C2E02C0F6
:1003D000759567950A94E2F76170F70181917F0145
:1003E0000E9487002196C430D10579F7C601DF91BC
:1003F000CF911F910F91FF90EF90DF90CF900C94D1
:10040000BE01CF92DF92EF92FF920F931F93CF9393
:10041000DF93EC01F62E642F8C810E9487008D8182
:100420008F3F19F060E00E9487000F2D10E08F854C
:1004300084FF25C06E0187E0C80ED11CF12CE12C91
:10044000B8010E2C02C0759567950A94E2F76170A9
:10045000F60181916F010E948700FFEFEF1AFF0AFA
:1004600088E0E816F10461F7CE01DF91CF911F918A
:100470000F91FF90EF90DF90CF900C94BE01B801E8
:1004800084E0759567958A95E1F7CE010E94D401C5
:100490006F2DCE01DF91CF911F910F91FF90EF90C3
:1004A000DF90CF900C94D40140E0682F83E691E078
:1004B0000C94010281E00E9454028BE39FE10197BA
:1004C000F1F70895CF93DF93823029F49091720170
:1004D000986090937201809376011092770180E486
:1004E0008093780180E18093790180E580937A019F
:1004F00061E0809167010E94D300809168018F3F85
:1005000019F061E00E94D30061E0809169010E94CE
:10051000D300C3E6D1E09E012356314080917201A1
:1005200084FD0BC084E090E021962817390744F43D
:1005300061E08E810E94D300EECF88E090E0F4CF9E
:100540008BE39DE00197F1F760E0809167010E94E5
:10055000870060E0809169010E94870080916801B6
:100560008F3F19F060E00E9487008091720184FD46
:1005700034C063E083E691E00E94D401CBE4D6E48A
:10058000CE010197F1F763E083E691E00E94D40188
:100590002197F1F763E083E691E00E94D40183E5BF
:1005A00092E00197F1F762E083E691E00E94D401C6
:1005B0008091720180620E94540284E080937301F2
:1005C0008CE00E9454020E945A0282E080937401DF
:1005D00086E0DF91CF910C94540280620E94540215
:1005E0008BE496E40197F1F78091720180620E949A
:1005F000540283E592E00197F1F7809172018062E5
:100600000E945402D5CFE1E0909176019111E0E093
:10061000E195F0E0ED59FE4F9489890F80680C94C4
:10062000540241E00E94010281E090E008951F928F
:100630000F920FB60F9211242F933F938F939F9396
:10064000AF93BF9380915B0190915C01A0915D019C
:10065000B0915E0130915A0123E0230F2D3758F5F8
:100660000196A11DB11D20935A0180935B019093C7
:100670005C01A0935D01B0935E0180915F01909158
:100680006001A0916101B09162010196A11DB11DAF
:1006900080935F0190936001A0936101B093620128
:1006A000BF91AF919F918F913F912F910F900FBE6E
:1006B0000F901F90189526E8230F0296A11DB11DDB
:1006C000D2CF789484B5826084BD84B5816084BDC6
:1006D00085B5826085BD85B5816085BD80916E00E0
:1006E000816080936E001092810080918100826011
:1006F000809381008091810081608093810080914E
:1007000080008160809380008091B100846080933C
:10071000B1008091B00081608093B00080917A0038
:10072000846080937A0080917A00826080937A005E
:1007300080917A00816080937A0080917A0080684D
:1007400080937A001092C10060E08EE00E94D30096
:1007500060E08FE00E94D30060E080E10E94D3005F
:1007600060E081E10E94D30060E082E10E94D3005A
:1007700082E00E946202C0E0D0E08EE00E940401AC
:100780005C018FE00E9404016C0180E10E94040181
:100790007C0181E10E9404018C0182E10E9404013C
:1007A00024E1A216B104A4F00E945A0281E00E9442
:1007B00003038FE091E00E94A10164EF71E080E00B
:1007C00090E00E943E012097C1F20E940000D5CF28
:1007D00024E1C216D10444F00E945A0280E00E9433
:1007E00003038BE191E0E7CF24E1E216F10444F04A
:1007F0000E945A0281E00E9403038AE291E0DBCF6B
:100800000431110544F00E945A0281E00E94030362
:1008100087E391E0D0CF449744F00E945A0281E0F0
:100820000E94030385E491E0C6CF0E945A0281E052
:100830000E94030382E591E00E94A10164E670E05A
:1008400080E090E0BECFE3E6F1E01382128284E024
:1008500091E0918380838CE084838FEF85838BE0AC
:10086000868385E0878384E0808783E0818782E0D8
:1008700082871386148615861686178681E00C9467
:100880006202EE0FFF1F0590F491E02D0994F89499
:02089000FFCF98
:1008920000000000110370019E019D010D0A004934
:1008A200204E45454420464F4F440049204E454581
:1008B2004420544F20524553540049204E4545444C
:1008C200205741544552004D59204E414D45204933
:1008D200532E2E2E004920414D2046524F4D20547A
:0A08E2005A004E4F5448494E47009B
:00000001FF
